:020000040000FA
:060000000A128A110C280F
:10000800FE00030EF1000A08F2000A128A112C29D8
:100018000A128A110F28F70183120313AE01AF01E8
:10002800B001B101B201B301B401B50183010A12F3
:100038008A11DA2883120313A40024080319252837
:1000480026283A28F61F29282A283A287309A600BC
:100058007409A7007509A8007609A900A60A03195A
:10006800A70A0319A80A0319A90A42287608A900A9
:100078007508A8007408A7007308A6007608750418
:1000880074047304031D49284A2853280030F600D5
:100098000030F5000030F4000030F300D928963025
:1000A800A0002008A50065280130A0002008A507A9
:1000B80001300310A90CA80CA70CA60CFF3E031DC9
:1000C8005D28FE302905031D6A286B2858288728D3
:1000D8000130A0002008A5070130A607003003184A
:1000E8000130A707003003180130A80700300318B3
:1000F8000130A90701300310A90CA80CA70CA60C05
:10010800FF3E031D7F28FF302905031D8C288D28FD
:100118006C2899280130A5020130A0000310A60D13
:10012800A70DA80DA90DA00B9228A81B9C289D28F7
:10013800A328023025020318A228A3288E282518F0
:10014800A628A728AF28FF30A605FF30A7057F30CF
:10015800A805FF30A9050310A50C2508A000A101DA
:10016800A201A30118300310A00DA10DA20DA30D2B
:10017800FF3E031DB7282008A6042108A70422086B
:10018800A8042308A90424080319CB28CC28D128BB
:10019800F61FCF28D028D128A9172908F600280843
:1001A800F5002708F4002608F30008000A128A114F
:1001B8000E210A128A110A128A114A210A128A1178
:1001C8007703031DE828E928DF28831203131E0894
:1001D800AA00AB01AC01AD012D08F6002C08F50012
:1001E8002B08F4002A08F30000300A128A111E2096
:1001F8000A128A11760883120313B5007508B40031
:100208007408B3007308B200F7019F14DF280A12BC
:100218008A110C2883160317880189018316031392
:10022800051485148601880183120313850186014C
:1002380088018C11831603138C158516F301F401BC
:10024800F50124300A128A1162210A128A11080063
:10025800831203138C1D3129322943290A128A116A
:1002680078210A128A1183120313880006080A12D9
:100278008A1188210A128A11831203138C117208B9
:100288008A00710E8300FE0E7E0E09008B170B1775
:10029800831203131F083F3940389F001F119F1115
:1002A8001F129F121F14831603139F131F129F12EE
:1002B8000C17831203130C139F140800F6008316FF
:1002C80003138712761D69296A296E297508940017
:1002D80087157229730875049400871176087404C9
:1002E80083120313940008000A128A1181210A124A
:1002F8008A11831203131308080083160313141CAE
:100308008629872981290800F000700883120313C1
:040318009300080046
:04400E00D6E0FFFFFA
:00000001FF
