:020000040000FA
:060000000A128A110C280F
:10000800FE00030EF2000A08F3000A128A115B28A8
:100018000A128A110F28F501F601F701F801831376
:100028002030840036300A128A110C210A128A11F3
:1000380083010A128A1120280A128A1195200A12AD
:100048008A110A128A11EB200A128A117803031DF9
:100058002E282F283928831203131E08B9003908BF
:10006800F700F801770888009F140A128A11D32034
:100078000A128A117803031D422843284D28831247
:1000880003131E08B9003908F600F801760886003F
:100098009F140D3083120313BA00FB30B900B90B5B
:1000A8005328BA0B532825280A128A110C288B13B7
:1000B8000B13831203130C1F622863286628F801A8
:1000C800F80A0C138C1D69286A288C280A128A11D0
:1000D80003210A128A11F1007108F5007503031D46
:1000E800762877287D2877080A128A111B210A1298
:1000F8008A1102307506031D82288328892876080C
:100108000A128A111B210A128A11831203138C11F5
:100118008B170B1773088A00720E8300FE0E7E0E73
:1001280009008316031788018901831603138601C2
:10013800880183120313860188018B170B178C1112
:10014800831603138C15851683120313B601B701A2
:10015800B80124300A128A11B4200A128A11080040
:10016800F4008316031387120716741DBC28BD28D4
:10017800C5288312031338088316031394008715C0
:10018800CD2883120313360838048316031394000A
:1001980087117408831203133704940008008B171F
:1001A8000B17831203131F083F3940389F001F1590
:1001B8009F111F129F121F14831603139F131F12E0
:1001C8009F120C17831203130C139F1408008B172C
:1001D8000B17831203131F083F3940389F001F1164
:1001E8009F111F129F121F14831603139F131F12B0
:1001F8009F120C17831203130C139F1408000A1282
:100208008A1114210A128A11831203131308080091
:1002180064008001840A04060319003404060D29C9
:1002280083160313141C19291A2914290800F0002D
:0A02380070088312031393000800FE
:04400E00D4E0FFFFFC
:00000001FF
