:020000040000FA
:100000000A128A11F72F00308A000408840A820736
:1000100000343F3406345B344F3466346D347D3401
:0600200007346F340034C8
:100CE6008316031385018601870189010814881478
:100CF600081588110812881208138813831603171B
:100D06008901880183120313850186018701880101
:100D1600890108000130F5007508F3077308031907
:100D2600952E962EDA2EB82E831203130514DA2E7C
:100D3600831203138514DA2E831203130515DA2E94
:100D4600831203138515DA2E831203130516DA2E82
:100D5600831203138516DA2E831203130914DA2E6F
:100D66008312031389140817DA2E7308F500F601A7
:100D76007608003A0319C02EDA2E7508013A0319CF
:100D8600972E033A03199B2E013A03199F2E073A11
:100D96000319A32E013A0319A72E033A0319AB2E02
:100DA600013A0319AF2E0F3A0319B32EDA2E0800B3
:100DB6000130F5007508F20772080319E32EE42ED8
:100DC600282F062F831203130614282F83120313CA
:100DD6008614282F831203130615282F8312031354
:100DE6008615282F831203130616282F8312031342
:100DF6008616282F831203130617282F8312031330
:100E060086178817282F7208F500F6017608003A2B
:100E160003190E2F282F7508013A0319E52E033AF8
:100E26000319E92E013A0319ED2E073A0319F12E9B
:100E3600013A0319F52E033A0319F92E013A03195B
:100E4600FD2E0F3A0319012F282F08000A128A11C6
:100E560073260A128A1183120313081C332F342FA8
:100E66002E2F881508128812043084000A128A115F
:100E760003200A128A1187000630F9001330F800A1
:100E8600AD30F700F70B452FF80B452FF90B452F23
:100E96004C2F83120313881108168812033084001E
:100EA6000A128A1103200A128A1187000630F900F5
:100EB6001330F800AD30F700F70B5F2FF80B5F2FFC
:100EC600F90B5F2F662F83120313881108128816F9
:100ED600023084000A128A1103200A128A1187003E
:100EE6000630F9001330F800AD30F700F70B792F14
:100EF600F80B792FF90B792F802F8312031388159E
:100F060008168816013084000A128A1103200A1274
:100F16008A118700F401F40A0630F9001330F8004C
:100F2600AD30F700F70B952FF80B952FF90B952F92
:100F36009C2FEE2F83120313881CA22FA32FB82FEA
:100F46007108031DA72FA82FB82FF101F10A0A1265
:100F56008A118D260A128A118230F800DD30F700D8
:100F6600F70BB32FF80BB32FB82F83120313081DFB
:100F7600BD2FBE2FD32F7008031DC22FC32FD32F13
:100F8600F001F00A0A128A11DB260A128A1182304F
:100F9600F800DD30F700F70BCE2FF80BCE2FD32F4E
:100FA600831203138818D82FD92FDA2FF1010819C5
:100FB600DD2FDE2FDF2FF001081FE22FE32FE72FB3
:100FC60006308700F401EE2F881FEA2FEB2FEE2F55
:100FD6005B308700E52F74030319F22FF32F9D2F43
:100FE6002E2F0A128A110028F001F101F201F301F5
:0A0FF600F40183010A128A11292F69
:04400E00D4E0FFFFFC
:00000001FF
