:020000040000FA
:060000000A128A110C280F
:10000800FE00030EF1000A08F2000A128A111728EE
:100018000A128A110F28F701F801F901FA01830180
:100028000A128A1183288B130B13831203130C1FD4
:100038001E281F282228F801F80A0C138C1D2528D1
:1000480026287A281412141B2A282B282F28941FB4
:100058002E282F2836281308F0007008FA001413E9
:100068009413141683160313941A3B283C28572814
:1000780014193F2840285728831203131308F00047
:100088007008FA008C11141683160313141C4D28DB
:100098004E28482883120313130888005330F000B1
:1000A800F00B54287728941A5A285B287728141DAF
:1000B8005E285F287728831203131308F00070085E
:1000C800FA0083160313141083120313060893000F
:1000D80014165330F000F00B6F288316031314180E
:1000E800762877287128831203138C118B170B1726
:1000F80072088A00710E8300FE0E7E0E09000A1235
:100108008A11DF200A128A110A128A11C7200A12DC
:100118008A117803031D912892289C2883120313BF
:100128001E08F4007408F700F801770886009F1489
:100138000330F6008A30F5005530F400F40BA2289D
:10014800F50BA228F60BA228A92888280A128A11DA
:100158000C28F300730883160313930036308312B8
:100168000313940080308316031394000130910028
:10017800871507168B170B17831203138C11831619
:1001880003138C1508008B170B17831203131F0812
:100198003F3940389F001F119F111F129F121F14D3
:1001A800831603139F131F129F120C178312031336
:1001B8000C139F14080083160317880189018316FE
:1001C8000313051486018801831203138501860130
:1001D800880150300A128A11AD200A128A110800CB
:04400E00D4E0FFFFFC
:00000001FF
