:020000040000FA
:060000000A128A110C280F
:10000800FE00030EF5000A08F6000A128A111728E6
:100018000A128A110F28F001F101F201F30183019C
:100028000A128A119D288B130B13831203130C1FBA
:100038001E281F282228F101F10A0C138C1D2528DF
:1000480026287A281412141B2A282B282F28941FB4
:100058002E282F2836281308F4007408F3001413E8
:100068009413141683160313941A3B283C28572814
:1000780014193F2840285728831203131308F40043
:100088007408F3008C11141683160313141C4D28DE
:100098004E28482883120313130888005330F400AD
:1000A800F40B54287728941A5A285B287728141DAB
:1000B8005E285F287728831203131308F400740856
:1000C800F300831603131410831203130608930016
:1000D80014165330F400F40B6F2883160313141806
:1000E800762877287128831203138C118B170B1726
:1000F80076088A00750E8300FE0E7E0E0900F70052
:100108007708831603139300363083120313940081
:100118008030831603139400013091008715071669
:100128008B170B17831203138C11831603138C156B
:1001380008000A128A11CE200A128A110A128A119C
:10014800B6200A128A117103031DAB28AC28A22815
:10015800831203131E088600F1019F14A2280A12B5
:100168008A110C288B170B17831203131F083F39AA
:1001780040389F001F119F111F129F121F148316D2
:1001880003139F131F129F120C17831203130C13D0
:100198009F1408000130831603178800890183160D
:1001A8000313051486018801831203138501860150
:1001B800880150300A128A1183200A128A11080015
:04400E00D4E0FFFFFC
:00000001FF
