:020000040000FA
:060000000A128A110C280F
:10000800FE00030EF1000A08F2000A128A11D12834
:100018000A128A110F28F701F801F90183010A125F
:100028008A1116280A128A118D200A128A110A12B8
:100038008A11BC200A128A11831203130711C730D0
:1000480083120313A0002828A00B27282B2801308F
:100058000A128A1101210A128A110A128A11F12040
:100068000A128A1183120313A0002008F8000D3029
:1000780083120313A100FB30A000A00B4128A10BA1
:10008800412802300A128A1101210A128A110A1221
:100098008A11F1200A128A1183120313A000200882
:1000A800F7000D3083120313A100FB30A000A00B52
:1000B8005B28A10B5B288312031307157808A0009F
:1000C800A1012008F3002108F4000A128A11E62091
:1000D8000A128A11770883120313A000A1012008CD
:1000E800F3002108F4000A128A11E6200A128A1184
:1000F800FF30F3000030F4000A128A11E6200A12D9
:100108008A11790883120313860020280A128A119B
:100118000C28831603178801890183160313071116
:100128008601880183120313860188010715F301EC
:10013800F401F50120300A128A11A5200A128A1149
:100148000800F6008316031387120716761DAD28DC
:10015800AE28B228750894008715B6287308750468
:10016800940087117608740483120313940008001E
:100178008B170B1783160313871707138C16263054
:10018800980090308312031398008316031787157D
:10019800673083160313990008008B130B1383121F
:1001A80003138C1ED828D928DD281A08F0007008F7
:1001B800F9008B170B1772088A00710E8300FE0E68
:1001C8007E0E090083160313981CEB28EC28E628FA
:1001D800730883120313990008000A128A11FA207F
:1001E8000A128A11831203131308080083160313D3
:1001F800141CFF280029FA280800F300730883124A
:060208000313930008003F
:04400E00D4E0FFFFFC
:00000001FF
