:020000040000FA
:060000000A128A110C280F
:10000800FE00030EF1000A08F2000A128A11E7281E
:100018000A128A110F28F701F801F90183010A125F
:100028008A1116280A128A11A3200A128A110A12A2
:100038008A11D2200A128A11831203130711C730BA
:1000480083120313A0002828A00B27282B2801308F
:100058000A128A1117210A128A110A128A11072113
:100068000A128A1183120313A0002008F8000D3029
:1000780083120313A100FB30A000A00B4128A10BA1
:10008800412802300A128A1117210A128A110A120B
:100098008A1107210A128A1183120313A00020086B
:1000A800F7000D3083120313A100FB30A000A00B52
:1000B8005B28A10B5B288312031307157808A0009F
:1000C800A1012008F3002108F4000A128A11FC207B
:1000D8000A128A11073083120313A1007C30A00092
:1000E800A00B7428A10B742800007708831203134F
:1000F800A000A1012008F3002108F4000A128A11C7
:10010800FC200A128A11073083120313A1007C30E5
:10011800A000A00B8D28A10B8D280000C130F30092
:100128000030F4000A128A11FC200A128A11790898
:1001380083120313860020280A128A110C288316BA
:1001480003178801890183160313071186018801A3
:1001580083120313860188010715F301F401F501E1
:1001680020300A128A11BB200A128A110800F600F0
:100178008316031387120716761DC328C428C828B8
:10018800750894008715CC287308750494008711A6
:100198007608740483120313940008008B170B1756
:1001A80083160313871707138C1626309800903090
:1001B8008312031398008316031787156730831675
:1001C8000313990008008B130B13831203138C1E5F
:1001D800EE28EF28F3281A08F0007008F9008B17AA
:1001E8000B1772088A00710E8300FE0E7E0E09003E
:1001F80083160313981C01290229FC28730883120B
:100208000313990008000A128A1110210A128A1190
:10021800831203131308080083160313141C1529EB
:10022800162910290800F30073088312031393009A
:020238000800BC
:04400E00D4E0FFFFFC
:00000001FF
