:020000040000FA
:060000000A128A11FC2F18
:100EE600F00070088312031393000800831603139F
:100EF600141C7E2F7F2F792F08000A128A1179275A
:100F06000A128A118312031313080800F3008316CA
:100F1600031387120716731D912F922F962F7208AF
:100F2600940087159A2F700872049400871173082D
:100F360071048312031394000800831603178801B3
:100F4600890183160313071186018801831203138F
:100F5600860188010715F001F101F20120300A121D
:100F66008A1189270A128A1108000A128A11A027F3
:100F76000A128A11831203130711C730F400C32F14
:100F8600F40BC22FC62FC72F01300A128A117327FE
:100F96000A128A110A128A1180270A128A118312EA
:100FA600031388000D30F500FB30F400F40BD92F45
:100FB600F50BD92FDE2F02300A128A1173270A1277
:100FC6008A110A128A1180270A128A1183120313C0
:100FD60086000D30F500FB30F400F40BF02FF50B16
:100FE600F02FF52F831203130715BD2F0A128A114E
:0A0FF600002883010A128A11B82FA7
:04400E00D4E0FFFFFC
:00000001FF
