:020000040000FA
:060000000A128A110C280F
:10000800FE00030EF1000A08F2000A128A11DB282A
:100018000A128A110F28F701F801F90183010A125F
:100028008A1116280A128A1192200A128A110A12B3
:100038008A11C6200A128A11831203130711C730C6
:1000480083120313A0002828A00B27282B2801308F
:100058000A128A110B210A128A110A128A11FB202C
:100068000A128A1183120313A0002008F8000D3029
:1000780083120313A100FB30A000A00B4128A10BA1
:10008800412802300A128A110B210A128A110A1217
:100098008A11FB200A128A1183120313A000200878
:1000A800F7000D3083120313A100FB30A000A00B52
:1000B8005B28A10B5B28831203130715051C652811
:1000C80066286928780886006B28770886007808EB
:1000D800A000A1012008F3002108F4000A128A11E7
:1000E800F0200A128A11770883120313A000A101D5
:1000F8002008F3002108F4000A128A11F0200A12DD
:100108008A11C130F3000030F4000A128A11F0207D
:100118000A128A1120280A128A110C28831603173A
:100128008801890183160313071186018801831248
:10013800031386018801831603130514831203131E
:100148000715F301F401F50120300A128A11AF20D6
:100158000A128A110800F60083160313871207167D
:10016800761DB728B828BC28750894008715C028BC
:1001780073087504940087117608740483120313B6
:10018800940008008B170B178316031387170713A0
:100198008C1626309800903083120313980083162B
:1001A80003178715673083160313990008008B130C
:1001B8000B13831203138C1EE228E328E7281A087E
:1001C800F0007008F9008B170B1772088A00710E7F
:1001D8008300FE0E7E0E090083160313981CF52873
:1001E800F628F028730883120313990008000A12EE
:1001F8008A1104210A128A118312031313080800B2
:1002080083160313141C09290A2904290800F3007A
:0A021800730883120313930008001B
:04400E00D4E0FFFFFC
:00000001FF
