:020000040000FA
:060000000A128A110C280F
:10000800FE00030EF7000A08F8000A128A11872872
:100018000A128A110F28F001F101F201F301F4012B
:10002800F50183010A128A1119280A128A11C620B9
:100038000A128A110A128A11E3200A128A110A1274
:100048008A1110210A128A111A30FA00F830F900C0
:10005800F90B2C28FA0B2C280000831203139F1489
:100068007003031D3828392850281E080F39F90055
:100078007908F3001E08F90004300310F90CFF3E5C
:10008800031D412879080F39FA007A08F2001E0882
:10009800F9007908F100F00175087102031C552870
:1000A8005628582808155928081188140810730864
:1000B800013E84000A128A1100210A128A1187005F
:1000C8000D30FA00FB30F900F90B6828FA0B6828A4
:1000D8006D2883120313881008147208013E8400E7
:1000E8000A128A1100210A128A1187000D30FA00BB
:1000F800FB30F900F90B7E28FA0B7E288328282884
:100108000A128A110C288B138B118B120B1C8D2849
:100118008E28A32883120313061C932894289A2850
:100128000130F6007608F50775088500861C9D28BD
:100138009E28A2280130F502750885000B1083124D
:1001480003130C1FA828A928AC28F001F00A0C13E7
:100158000B1DAF28B028BC280B110430810074088F
:10016800031DB728B828BB28F401F40ABC28F401F9
:100178008B178B158B1678088A00770E8300FE0E76
:100188007E0E0900831603138801870106150614DD
:1001980086148501831603178901880183120313C6
:1001A800850186018701880189018B018B178B15D1
:1001B8000B108316031316149614161508008316CD
:1001C80003130C17831203130C171F083F39403809
:1001D8009F001F119F111F129F169F101F14831637
:0A01E80003139F131F129F1208005B
:1002000001308A000408840A820700343F3406342F
:100210005B344F3466346D347D3407346F34773457
:10022000813083160313810004308312031381008D
:040230008B16080021
:04400E00D4E0FFFFFC
:00000001FF
