:020000040000FA
:060000000A128A110C280F
:10000800FE00030EF2000A08F3000A128A111528EE
:100018000A128A110F28F001F10183010A128A11CC
:1000280052280B1C182819282F2883120313061C82
:100038001E281F2825288B138B1185148B178B15C9
:100048000B10861C282829282F288B138B1105159F
:100058008B178B150B1073088A00720E8300FE0E27
:100068007E0E0900831603138801870109140614FC
:1000780086148501831603178901880183120313E7
:10008800850186018701880189018B018B178B15F2
:100098000B10831603131614961408000A128A11FB
:0C00A80036200A128A110A128A110C2854
:04400E00D4E0FFFFFC
:00000001FF
