:020000040000FA
:060000000A128A110C280F
:10000800FE00030EF1000A08F2000A128A113F28C6
:100018000A128A110F28F501F60183010A128A11C2
:1000280015280A128A115D200A128A110A128A11E9
:1000380099200A128A110A128A1187200A128A1133
:100048001A30F400F830F300F30B2828F40B2828B2
:1000580000000A128A1175200A128A111A30F40057
:10006800F830F300F30B3628F40B362800001F286D
:100078000A128A110C28831203130C1F44284528DE
:1000880056281F19482849284D281E08F0007008CE
:10009800F6001F1D5028512855281E08F00070082A
:1000A800F5000C1372088A00710E8300FE0E7E0E96
:1000B8000900831603138801870186140616831620
:1000C80003178901880183120313860187018801B8
:1000D8008B018B178B150B108316031316169614AA
:1000E8000800831203131F083F3940389F001F156B
:1000F8009F151F129F169F101F14831603139F131B
:100108001F129F120800831203131F083F3940383B
:100118009F001F119F151F129F169F101F148316F3
:1001280003139F131F129F120800831603130C1743
:08013800831203130C170800E9
:04400E00D4E0FFFFFC
:00000001FF
