:020000040000FA
:060000000A128A110C280F
:10000800FE00030EF1000A08F2000A128A15E6281B
:100018000A128A110F28F801F901FA018312031351
:10002800EC01ED01EE01EF018313A0308400B03044
:100038000A128A1553200A128A1183010A128A1198
:10004800862B831203133B088039C0004008C50083
:100058003B08C0004007C1004108CB00BA1F352843
:10006800362837284B144B0803193B283C284B28C3
:100078004B0A031D4028412849280030BB000030A6
:10008800BA000030B9000030B800BA175328003061
:10009800BB000030BA000030B9000030B8003F089B
:1000A8008039C0004008C5063F08C0004007C100AD
:1000B8004108CA00BE1F6128622863284A144A08FA
:1000C80003196728682877284A0A031D6C286D28B1
:1000D80075280030BF000030BE000030BD00003081
:1000E800BC00BE177F280030BF000030BE000030C3
:1000F800BD000030BC004A080319832884288928D9
:100108004B08031D8828892892280030BB0000303E
:10011800BA000030B9000030B800852B3808C0009C
:100128004008F3003E080A128A156A210A128A1149
:10013800740883120313D1007308D0005008C0005C
:10014800C101C201C3014308C9004208C8004108EF
:10015800C7004008C6005108C000C101C201C30160
:100168004308CF004208CE004108CD004008CC002B
:100178003908C0004008F3003D080A128A156A21B0
:100188000A128A11740883120313D1007308D0006D
:100198005008C000C101C201C3014008C607410898
:1001A80003110318013E0319DA28C707420803118F
:1001B8000318013E0319E128C8074308031103186F
:1001C800013E0319E828C9075108C000C101C2014E
:1001D800C3014008CC07410803110318013E031965
:1001E800F628CD07420803110318013E0319FD281C
:1001F800CE07430803110318013E03190429CF074A
:100208003A08C0004008F3003C080A128A156A211F
:100218000A128A11740883120313D1007308D000DC
:100228005008C000C101C201C3014008C607410807
:1002380003110318013E03192229C70742080311B5
:100248000318013E03192929C80743080311031895
:10025800013E03193029C9075108C000C101C20174
:10026800C3014008CC07410803110318013E0319D4
:100278003E29CD07420803110318013E03194529F9
:10028800CE07430803110318013E03194C29CF0771
:100298000830C0000310C60DC70DC80DC90DC00B2E
:1002A8004E293908C0004008F3003C080A128A1594
:1002B8006A210A128A11740883120313D100730881
:1002C800D0005008C0005108C100C201C301400855
:1002D800C607410803110318013E03197429C7070B
:1002E800420803110318013E03197B29C807430874
:1002F80003110318013E03198229C9073808C000F1
:100308004008F3003D080A128A156A210A128A1168
:10031800740883120313D1007308D0005008C0007A
:100328005108C100C201C3014008C60741080311B2
:100338000318013E0319A129C7074208031103182E
:10034800013E0319A829C807430803110318013EF1
:100358000319AF29C9070830C0000310C60DC70D1F
:10036800C80DC90DC00BB1293808C0004008F300FA
:100378003C080A128A156A210A128A117408831223
:100388000313D1007308D0005008C0005108C10001
:10039800C201C3014008C607410803110318013E02
:1003A8000319D729C707420803110318013E031987
:1003B800DE29C807430803110318013E0319E5297C
:1003C800C9073908C0004008F3003E080A128A1518
:1003D8006A210A128A11740883120313D100730860
:1003E800D0005008C0005108C100C201C301400834
:1003F800CC07410803110318013E0319042ACD074D
:10040800420803110318013E03190B2ACE074308BB
:1004180003110318013E0319122ACF073A08C00036
:100428004008F3003D080A128A156A210A128A1147
:10043800740883120313D1007308D0005008C00059
:100448005108C100C201C3014008CC07410803118B
:100458000318013E0319312ACD0742080311031876
:10046800013E0319382ACE07430803110318013E39
:1004780003193F2ACF073A08C0004008F3003E0896
:100488000A128A156A210A128A1174088312031340
:10049800D1007308D0005008C0005108C100C20143
:1004A800C30108300310C00DC10DC20DC30DFF3EBE
:1004B800031D562A4008CC07410803110318013EC2
:1004C8000319672ACD07420803110318013E0319CF
:1004D8006E2ACE07430803110318013E0319752A33
:1004E800CF074608C0004708C1004808C2004908AD
:1004F800C30018300310C30CC20CC10CC00CFF3E63
:10050800031D7E2A4008CC07410803110318013E49
:1005180003198F2ACD07420803110318013E031956
:10052800962ACE07430803110318013E03199D2A92
:10053800CF070830C0000310C60DC70DC80DC90D80
:10054800C00B9F2A4B084A07C000C101C10D4008D3
:10055800823ED00041080318013EFF3ED100D12A57
:100568000130C0000310CC0DCD0DCE0DCF0DC00B4A
:10057800B62AC91FC02AC12AC22A4C140130C00099
:100588000310C60DC70DC80DC90DC00BC42AFF3016
:10059800D0070318D10AFF30D107CE1FD42AD52A95
:1005A800B42ACA01C91FD92ADA2AF62AFF30460511
:1005B800C000FF304705C100FF304805C2007F304A
:1005C8004905C30043084204410440040319ED2AC5
:1005D800EE2AF12ACA01CA0AF62A4C1CF42AF52A7C
:1005E800F62AEE2A4A080319FA2AFB2A2C2B01308C
:1005F800CC07003003180130CD0700300318013054
:10060800CE07003003180130CF074F1C0C2B0D2BE1
:100618002C2B4C08C0004D08C1004E08C2004F08E2
:10062800C3000130C400430DC30CC20CC10CC00C84
:10063800C40B172B4308CF004208CE004108CD0059
:100648004008CC000130D0070318D10A0030D10788
:100658005108803AFF0080307F02031D352BFF30A0
:100668005002031C382B392B442B7F308312031381
:10067800CF008030CE000030CD000030CC00792B88
:10068800831203135108803AFF0080307F02031D54
:100698004F2B013050020318522B532B5F2B003085
:1006A80083120313CF000030CE000030CD0000309D
:1006B800CC00C501792B831203135008C0004008F1
:1006C800CB00FF30CC05FF30CD057F30CE050030A4
:1006D800CF054B1C702B712B722BCE174B08C0000B
:1006E8000310400CC1004108CF004508C000400875
:1006F800CF044F08BB004E08BA004D08B9004C089B
:10070800B80008000A128A15CB200A128A110A12A8
:100718008A1577200A128A110A128A11A6270A1244
:100728008A110A128A155B200A128A11F601F60A42
:1007380001300A128A1544210A128A110B30F50079
:100748008030F6000A128A15CF210A128A11063063
:1007580083160313B0003008F60001300A128A1518
:1007680044210A128A111030F5008030F6000A126E
:100778008A15CF210A128A110B3083160313B00091
:100788003008F60001300A128A1544210A128A112B
:100798001530F5008030F6000A128A15CF210A12AA
:1007A8008A110A128A159B200A128A117A03031DDC
:1007B800DE2BDF2B042C831203131E08831603136E
:1007C800B000B101B201B3013308F6003208F500F8
:1007D8003108F4003008F30000300A128A15D722D5
:1007E8000A128A11760883160313AF007508AE0043
:1007F8007408AD007308AC00FA01831203139F1448
:10080800433083120313D5007F30D4000030D30067
:100818000030D2004030BB00A030BA000030B90030
:100828000030B800831603132F0883120313BF0088
:10083800831603132E0883120313BE0083160313B3
:100848002D0883120313BD00831603132C0883128B
:100858000313BC000A128A1125200A128A11831276
:1008680003133B08D9003A08D8003908D7003808DC
:10087800D6000A128A1593230A128A1183120313C7
:10088800550883160313AF00831203135408831605
:100898000313AE0083120313530883160313AD002A
:1008A80083120313520883160313AC002F08F600B3
:1008B8002E08F5002D08F4002C08F3000A128A15FA
:1008C8005B220A128A11730883160313B0003008DA
:1008D800F900423083120313BB00C830BA0000305D
:1008E800B9000030B800790883160313B000B101CD
:1008F800B201B3013308F6003208F5003108F400FC
:100908003008F30001300A128A15D7220A128A1118
:10091800760883120313B3007508B2007408B10097
:100928007308B000831603132F0883120313B7004C
:10093800831603132E0883120313B60083160313BA
:100948002D0883120313B500831603132C08831292
:100958000313B4000A128A1520210A128A1183127D
:1009680003133308BF003208BE003108BD00300849
:10097800BC000A128A1125200A128A118312031355
:100988003B0883160313A700831203133A08831640
:100998000313A60083120313390883160313A50053
:1009A80083120313380883160313A4002708F600DC
:1009B8002608F5002508F4002408F3000A128A1511
:1009C8005B220A128A11730883160313B0003008D9
:1009D80083120313EF00F601F60A02300A128A1591
:1009E80044210A128A1179080A128A1502210A1268
:1009F8008A111D300A128A1568200A128A11831278
:100A080003136F080A128A1502210A128A110A12A0
:100A18008A15B3200A128A117A03031D142D152D85
:100A28003A2D831203131E0883160313B000B10175
:100A3800B201B3013308F6003208F5003108F400BA
:100A48003008F30000300A128A15D7220A128A11D8
:100A5800760883160313AB007508AA007408A9006A
:100A68007308A800FA01831203139F1443308312FA
:100A78000313D5007F30D4000030D3000030D200FB
:100A88004030BB00A030BA000030B9000030B800D8
:100A9800831603132B0883120313BF008316031353
:100AA8002A0883120313BE0083160313290883122E
:100AB8000313BD0083160313280883120313BC0015
:100AC8000A128A1125200A128A11831203133B087D
:100AD800D9003A08D8003908D7003808D6000A12D1
:100AE8008A1593230A128A11831203135508831651
:100AF8000313AB0083120313540883160313AA00CD
:100B080083120313530883160313A90083120313D4
:100B1800520883160313A8002B08F6002A08F500CC
:100B28002908F4002808F3000A128A155B220A1221
:100B38008A11730883160313B0003008F800423096
:100B480083120313BB00C830BA000030B90000306C
:100B5800B800780883160313B000B101B201B301DD
:100B68003308F6003208F5003108F4003008F300C5
:100B780001300A128A15D7220A128A1176088312BE
:100B88000313B3007508B2007408B1007308B0000D
:100B9800831603132B0883120313B700831603135A
:100BA8002A0883120313B600831603132908831235
:100BB8000313B50083160313280883120313B40024
:100BC8000A128A1520210A128A1183120313330884
:100BD800BF003208BE003108BD003008BC000A1250
:100BE8008A1125200A128A11831203133B088316DF
:100BF8000313A300831203133A0883160313A200F6
:100C080083120313390883160313A10083120313F5
:100C1800380883160313A0002308F6002208F500FD
:100C28002108F4002008F3000A128A155B220A1230
:100C38008A11730883160313B00030088312031354
:100C4800EE00073083160313B0003008F6000230B8
:100C58000A128A1544210A128A1178080A128A157A
:100C680002210A128A111D300A128A1568200A12F6
:100C78008A11831203136E080A128A1502210A12B6
:100C88008A110D3083160313B100FB30B000B00B8E
:100C98004B2EB10B4B2E2B30831203136D06031D05
:100CA800562E572E602E013083160313B0003008DD
:100CB80083120313EC07682E2D306D06031D652E75
:100CC800662E682E0130EC020E3083160313B00036
:100CD8003008F60002300A128A1544210A128A11D5
:100CE800831203136C080A128A1502210A128A1148
:100CF800790883160313B000B1013008F3003108F6
:100D0800F4000A128A11F4270A128A117808831645
:100D18000313B000B1013008F3003108F4000A12DF
:100D28008A11F4270A128A11831203136F08831693
:100D38000313B000B1013008F3003108F4000A12BF
:100D48008A11F4270A128A11831203136E08831674
:100D58000313B000B1013008F3003108F4000A129F
:100D68008A11F4270A128A11D52B0A128A110C2823
:100D780083120313B4002A30AC002C08AF008F2F65
:100D8800253035060319C92ECA2ED62E3508AC00D3
:100D9800340884002C08831380000130AC002C0830
:100DA800B4078F2FB0010130A907FF30290784004D
:100DB8000A128A150A200A128A11B500AC00AD0180
:100DC8002D08003A0319E92E8F2F2C08003A031931
:100DD800A12F643A0319F42E0D3A0319F42E8F2F1C
:100DE8002F08840083130008B200840A0008B300A7
:100DF8000230AC002C08AF07B31F032F042F0D2FB0
:100E08000330AC002C08B004B209B309B20A0319C4
:100E1800B30AB501B50A3508AC002C07013E8400B9
:100E28000A128A150A200A128A11AD000A128A15B6
:100E38000A200A128A11AE002E083302031D262F3B
:100E48002D0832020318292F2A2F2B2F352F013076
:100E5800AC002C08B50705303506031D342F352F97
:100E68000F2F3008033903193A2F3B2F462F2D3007
:100E7800AC00340884002C08831380000130AC00D7
:100E88002C08B4073508AC002C08B100862F0A30AE
:100E9800A3000030A4003108AC002C07013E8400F8
:100EA8000A128A150A200A128A11F3000A128A15F0
:100EB8000A200A128A11F4003308F6003208F500F5
:100EC8000A128A1515220A128A117408831203134A
:100ED800A6007308A5000A128A1593210A128A111E
:100EE800831203132308303EAD002D08B5003508E2
:100EF800AC00340884002C08831380000130AC0057
:100F08002C08B407FF30AC002C08B107310A031DC8
:100F18008E2F8F2F4B2F0130A907FF302907840010
:100F28000A128A150A200A128A11AC002C08B50088
:100F38003508031DA02FA12FC42E34088400831365
:100F4800800108001430F7007930F600F60BAA2F5C
:100F5800F70BAA2FAF2F30300A128A1587200A12F2
:100F68008A110730F7007D30F600F60BB92FF70B22
:100F7800B92F30300A128A1587200A128A110F30C9
:100F8800F7004730F600F60BC72FF70BC72FCC2F0B
:100F980030300A128A1587200A128A11D030F700D9
:100FA800C930F600F60BD62FF70BD62FDB2F3830CB
:100FB8000A128A1587200A128A1101300A128A1524
:100FC80087200A128A1106300A128A1587200A1207
:100FD8008A110C300A128A1587200A128A11080011
:100FE80083160313981CF92FFA2FF42F7308831212
:060FF8000313990008003C
:10100000FF1B0A2883137F1883170008840A03191B
:10101000FF0A080008308A000408840A82070034A6
:10102000013400340A34003464340034E8340334C6
:101030001034273450344F34543431340034503465
:101040004F3454343234003443344F344E345434F7
:0C10500000342534643400342E340034A5
:1010A60064008001840A04060319003404065428E7
:1010B60000300A128A1587200A128A1501300A1290
:1010C6008A1587200A128A150800F4008312031372
:1010D60006177408880086170D30F300F30B712885
:1010E60083120313861308008030831603138700C8
:1010F6008C122630980090308312031398006730C4
:101106008316031399000800F500831203130613D0
:101116007508880086170630F4003030F300F30BAC
:101126009228F40B922800008312031386130800FA
:101136008B170B17831203131F083F3940389F0084
:101146001F119F111F129F121F14831603139F1343
:101156001F129F120C17831203130C139F140800FF
:101166008B170B17831203131F083F3940389F0054
:101176001F159F111F129F121F14831603139F130F
:101186001F129F120C17831203130C139F140800CF
:10119600831603130F088F3960388F000F148601EA
:1011A6008801870105148514831603178901033006
:1011B60088008312031385018601870188018B014C
:1011C6008B170B1008008B130B13831203130C1FC2
:1011D600ED28EE28F128FA01FA0A0C138C1EF428E1
:1011E600F528F9281A08F0007008ED008B170B1780
:1011F60072088A00710E8300FE0E7E0E09008312AD
:101206000313BD001A30B6003608A9003D08B70022
:10121600B8013708AA003808AB0039300A128A111B
:10122600BC260A128A153930F5000030F6000A127B
:101236008A15CF210A128A150800803083120313FB
:10124600B3063708A3003608A2003508A100340803
:10125600A0003308A7003208A6003108A500300810
:10126600A4000A128A1570250A128A15831203131E
:101276002308B3002208B2002108B1002008B000FC
:10128600080083120313A0002003031D4B294C29D9
:10129600582976087F3EF7007708A10021080A1230
:1012A6008A1587200A128A15692902302006031D2D
:1012B6005D295E2969297608BF3EF7007708A100F7
:1012C60021080A128A1587200A128A150800831235
:1012D6000313A400A001A1017308F500F601750827
:1012E600A2007608A300241C79297A2980292208DD
:1012F600A0070318A10A2308A10701300310A20DB5
:10130600A30DFF3E031D81290310A40C2408031D11
:101316008D298E2976292108F4002008F30008007B
:10132600831203132308240403199A299B29CA2923
:10133600A801A80AA92901300310A30DA40DFF3E98
:10134600031D9F290130A7002708A807A41FAC2961
:10135600AD299E2924082602031DB3292308250248
:10136600031CB629B729BD292308A5022408031C96
:10137600A603A60201300310A40CA30CFF3E031D16
:10138600BE290130A802031DC929CA29AD2926088C
:10139600A4002508A300080083120313A301A401D7
:1013A600F82923087507A1007608A0000318A00AEB
:1013B600A31FDE29A003831203132008A20022081C
:1013C600FF00210884000A128A1500200A128A15D5
:1013D6000A128A1568200A128A150130831203132D
:1013E600A3070318A40A0030A40723087507A10061
:1013F6007608A0000318A00AA31F022AA0038312DE
:1014060003132008A2002208FF00210884000A1204
:101416008A1500200A128A15003A031D132A142A77
:10142600D429080083120313A101A20173087404CE
:1014360003191E2A1F2A562AA001A00A2D2A0130A6
:101446000310F30DF40DFF3E031D232A0130F700B0
:101456007708A007F41F302A312A222A0130031008
:10146600A10DA20DFF3E031D322A74087602031D4C
:101476003E2A73087502031C412A422A492A730828
:10148600F5027408031CF603F6022114013003105A
:10149600F40CF30CFF3E031D4A2A0130A002031D83
:1014A600552A562A312A2208F4002108F30008009A
:1014B6000310750D760D83120313A0002008A600F5
:1014C6002608031D672A682A712A0030F6000030B4
:1014D600F5000030F4000030F300D62A7308A000AF
:1014E6007408A1007508A2007608A3001F30031037
:1014F600A30CA20CA10CA00CFF3E031D7A2A200807
:10150600A4002408A500F517FF30F305FF30F40505
:10151600FF30F5050030F6059630A602A61F942A80
:10152600952AAF2A2608803A973E03189B2A9C2ABA
:101536009D2A682A01300310F60CF50CF40CF30C06
:10154600FF3E031D9E2A0130A0002008A607031DAA
:10155600AD2AAE2A9D2AC62A20302602031CB42AAA
:10156600B52AC12A682A0130A0000310F30DF40D34
:10157600F50DF60DA00BB82A0130A6022608031DAC
:10158600C52AC62AB62A25080319CA2ACB2AD62A64
:10159600F309F409F509F609F30A0319F40A03191C
:1015A600F50A0319F60A080083120313A400240897
:1015B6000319DE2ADF2AF32AF61FE22AE32AF32A90
:1015C6007309A6007409A7007509A8007609A90081
:1015D600A60A0319A70A0319A80A0319A90AFB2AC6
:1015E6007608A9007508A8007408A7007308A60065
:1015F6007608750474047304031D022B032B0C2B4D
:101606000030F6000030F5000030F4000030F30042
:10161600922B9630A0002008A5001E2B0130A000BA
:101626002008A50701300310A90CA80CA70CA60CCE
:10163600FF3E031D162BFE302905031D232B242BED
:10164600112B402B0130A0002008A5070130A6076A
:10165600003003180130A707003003180130A8072F
:10166600003003180130A90701300310A90CA80C9B
:10167600A70CA60CFF3E031D382BFF302905031DC2
:10168600452B462B252B522B0130A5020130A000FD
:101696000310A60DA70DA80DA90DA00B4B2BA81B7B
:1016A600552B562B5C2B0230250203185B2B5C2B2B
:1016B600472B25185F2B602B682BFF30A605FF30C4
:1016C600A7057F30A805FF30A9050310A50C25083E
:1016D600A000A101A201A30118300310A00DA10DC5
:1016E600A20DA30DFF3E031D702B2008A6042108A2
:1016F600A7042208A8042308A90424080319842B94
:10170600852B8A2BF61F882B892B8A2BA91729084C
:10171600F6002808F5002708F4002608F30008005C
:101726008312031359088039DA005A08E30059086E
:10173600DA005A07DB005B08EA00D81FA32BA42BAC
:10174600A52B6A146A080319A92BAA2BBA2B6A0AB5
:10175600031DAE2BAF2BB72B0030D9000030D800BD
:101766000030D7000030D600D817D901C22B003080
:10177600D9000030D8000030D7000030D600550818
:101786008039DA005A08E3065508DA005A07DB0002
:101796005B08EB00D41FD02BD12BD22B6B146B081C
:1017A6000319D62BD72BE72B6B0A031DDB2BDC2B60
:1017B600E42B0030D5000030D4000030D3000030D8
:1017C600D200D417D501EF2B0030D5000030D4005D
:1017D6000030D3000030D20055085404530452049C
:1017E600031DF62BF72B102C0030D9000030D80043
:1017F6000030D7000030D6008030D8047F30D904BE
:101806006308DA005A08D9045908D5005808D400E4
:101816005708D3005608D2006F2D6A08031D142CF2
:10182600152C1E2C0030D5000030D4000030D3001B
:101836000030D2006F2D6A08DA00DB015B08DD009C
:101846006B085A02DC00031CDD035C087F3EE400E3
:101856005D080318013E003EE5005908E2005808FD
:10186600E1005708E0005608DF000030D9000030DC
:10187600D8000030D7000030D6000030E900003034
:10188600E8000030E7000030E600EB01942C6B081E
:1018960003194E2C4F2C6F2C0130DA000310DF0D8C
:1018A600E00DE10DE20DDA0B512C0130DA000310E8
:1018B600D60DD70DD80DD90DDA0B5A2CE91F642C8D
:1018C600652C662C56140130DA000310E60DE70D80
:1018D600E80DE90DDA0B682C55086202031D7D2C14
:1018E60054086102031D7D2C53086002031D7D2CE4
:1018F60052085F02031C802C812C902C6917520819
:10190600DF025308031C530FE0025408031C540F54
:10191600E1025508031C550FE2020130DA005A08AD
:10192600EB071A306B02031C992C9A2C4A2C62087E
:10193600610460045F040319A12CA22CC12C661457
:10194600C12C0130DA000310D60DD70DD80DD90DF4
:10195600DA0BA62CE91FB02CB12CB22C5614013090
:10196600DA000310E60DE70DE80DE90DDA0BB42CED
:10197600FF30E4070318E50AFF30E507D81FC42C3B
:10198600C52CA42CEB01E91FC92CCA2CE62CFF3070
:101996006605DA00FF306705DB00FF306805DC000E
:1019A6007F306905DD005D085C045B045A04031999
:1019B600DD2CDE2CE12CEB01EB0AE62C561CE42C8C
:1019C600E52CE62CDE2C6B080319EA2CEB2C1C2DDF
:1019D6000130D607003003180130D707003003184E
:1019E6000130D807003003180130D907591CFC2CE8
:1019F600FD2C1C2D5608DA005708DB005808DC00C1
:101A06005908DD000130DE005D0DDD0CDC0CDB0C61
:101A1600DA0CDE0B072D5D08D9005C08D8005B08E0
:101A2600D7005A08D6000130E4070318E50A00304B
:101A3600E5076508803AFF0080307F02031D252DEB
:101A4600FF306402031C282D292D372DFF30831209
:101A56000313E4000030E5000030D9000030D80060
:101A66000030D7000030D600831203136508803A91
:101A7600FF0080307F02031D422D013064020318EF
:101A8600452D462D532D83120313E401E501003045
:101A9600D9000030D8000030D7000030D600E3016E
:101AA600831203136408DA005A08EA006A1C5C2DE4
:101AB6005D2D5F2DD817632D7F30DA005A08D805C3
:101AC6006A08DA0003105A0CDB005B08D9006308C9
:101AD600DA005A08D904072C0800831203132308D6
:101AE6008039A8002808F3002308A8002807A900C1
:101AF6002908F500A21F802D812D822D75147508E9
:101B06000319862D872D972D750A031D8B2D8C2D78
:101B1600942D0030A3000030A2000030A100003058
:101B2600A000A217A3019F2D0030A3000030A20041
:101B36000030A1000030A00027088039A80028083E
:101B4600F400740873060319A92DAA2DAB2D73177B
:101B56002708A8002807A9002908F400A61FB42D05
:101B6600B52DB62D741474080319BA2DBB2DCB2DC3
:101B7600740A031DBF2DC02DC82D0030A7000030EC
:101B8600A6000030A5000030A400A617A701D32D9B
:101B96000030A7000030A6000030A5000030A400E9
:101BA600750874020318D82DD92D1D2E731FDC2D30
:101BB600DD2DE12D8030A8002808F3067508A80061
:101BC6002808F6007408A8002808F5007608A8007A
:101BD6002808F4002008A8002808F6002408A80011
:101BE6002808A0007608A8002808A4002108A80054
:101BF6002808F6002508A8002808A1007608A800ED
:101C06002808A5002208A8002808F6002608A8002B
:101C16002808A2007608A8002808A6002308A8001D
:101C26002808F6002708A8002808A3007608A800B8
:101C36002808A700F6017408A800A9012908AB0026
:101C460075082802AA00031CAB032B08803AFF0084
:101C560080307F02031D312E1A302A02031C342ED7
:101C6600352E762E83120313230822042104200422
:101C7600031D3E2E402E0130412E0030A8002808BC
:101C8600F6000030A3000030A2000030A1000030B2
:101C9600A0007408A8002808F5007C2E761C542E97
:101CA600552E602E760883120313A8000310280C05
:101CB6000138A9002908F600622E0310F60C8312DB
:101CC6000313201C672E682E692EF6170130A80014
:101CD600230DA30CA20CA10CA00CA80B6B2E01309B
:101CE600A8002808F50774087502031C7B2E7C2EB5
:101CF600512E731B7F2E802ECF2E7508031D842E2A
:101D0600852E902E003083120313A3000030A2000C
:101D16000030A1000030A000FF2F83120313240817
:101D2600A007250803110318013E03199B2EA107DE
:101D3600260803110318013E0319A22EA20727083D
:101D460003110318013E0319A92EA307231CAC2E69
:101D5600AD2E852F761CB02EB12EBA2E7608A80091
:101D66000310280C0138A9002908F600BC2E031020
:101D7600F60C201CBF2EC02EC12EF6170130A8006F
:101D8600230DA30CA20CA10CA00CA80BC32E013092
:101D9600A8002808F507852F831203132308803A25
:101DA600FF002708803A7F02031DE32E2608220241
:101DB600031DE32E25082102031DE32E240820021D
:101DC6000318E62EE72E3F2FFF30A800FF30A900AC
:101DD600FF30AA00FF30AB002408AC002508AD0098
:101DE6002608AE002708AF002008AC022108031C15
:101DF600210FFE2EFF2EAD022208031C220F042FF8
:101E0600052FAE022308031C230F0A2F0B2FAF0248
:101E16002C08A8072D0803182D0F122F132FA9071A
:101E26002E0803182E0F182F192FAA072F0803188C
:101E36002F0AAB072B08A3002A08A2002908A10035
:101E46002808A0008030A8002808F306F609F60A3C
:101E56007608031D2F2F302F4D2F0130A00700309D
:101E660003180130A107003003180130A207003023
:101E760003180130A3074D2F2408A0022508031CD0
:101E8600250FA1022608031C260FA2022708031C01
:101E9600270FA3022308220421042004031D542F24
:101EA600552F812F7608031D592F5A2F812F003069
:101EB600A3000030A2000030A1000030A000FF2FD8
:101EC6000130A8000310A00DA10DA20DA30DA80BB3
:101ED600652FF61F6F2F702F712F2014761C742F0D
:101EE600752F782F0314F60D7A2F0310F60D75084B
:101EF60003197E2F7F2F812F0130F502A21F842F19
:101F0600852F632FF401F61F892F8A2F982F7608C5
:101F16007F3903198F2F902F932FF401F40A982FEE
:101F2600201C962F972F982F902F740803199C2FFB
:101F36009D2FD12F0130A007003003180130A107D3
:101F4600003003180130A207003003180130A30740
:101F5600231CAE2FAF2FD12F2008A8002108A900DF
:101F66002208AA002308AB000130AC002B0DAB0CF5
:101F7600AA0CA90CA80CAC0BB92F2B08A3002A0895
:101F8600A2002908A1002808A000750A0319CC2F71
:101F9600CD2FD12F0130A8002808F507750A03199F
:101FA600D52FD62FDB2F7508031DDA2FDB2FE92F50
:101FB6000030A3000030A2000030A1000030A000D5
:101FC6007508031DE72FE82FE92FF301751CEC2F89
:101FD600ED2FEF2FA217F32F7F30A8002808A205B8
:101FE6007508A8000310280CA9002908A300F31FF0
:0A1FF600FD2FFE2FFF2FA317080098
:04400E00D4E0FFFFFC
:00000001FF
