:020000040000FA
:060000000A128A110C280F
:10000800FE00030EF0000A08F1000A128A15C9283A
:100018000A128A110F28FA01FB0183120313EC015B
:10002800ED01EE018313A0308400B0300A128A116A
:10003800F8270A128A1183010A128A11842B831263
:10004800031337088039BC003C08C1003708BC00DE
:100058003C07BD003D08C700B61F332834283528A3
:1000680047144708031939283A284928470A031D1D
:100078003E283F2847280030B7000030B60000303F
:10008800B5000030B400B61751280030B700003072
:10009800B6000030B5000030B4003B088039BC0021
:1000A8003C08C1063B08BC003C07BD003D08C20037
:1000B800BA1F5F286028612842144208031965287E
:1000C80066287528420A031D6A286B2873280030A1
:1000D800BB000030BA000030B9000030B800BA17D1
:1000E8007D280030BB000030BA000030B900003075
:1000F800B800420803198128822887284708031D69
:100108008628872890280030B7000030B6000030D5
:10011800B5000030B400832B3408BC003C08F20062
:100128003A080A128A15A2210A128A117308831240
:100138000313CD007208CC004C08BC00BD01BE0101
:10014800BF013F08C6003E08C5003D08C4003C0882
:10015800C3004D08BC00BD01BE01BF013F08CB0074
:100168003E08CA003D08C9003C08C8003508BC0064
:100178003C08F20039080A128A15A2210A128A11CB
:10018800730883120313CD007208CC004C08BC001E
:10019800BD01BE01BF013C08C3073D080311031898
:1001A800013E0319D828C4073E0803110318013E6D
:1001B8000319DF28C5073F0803110318013E031977
:1001C800E628C6074D08BC00BD01BE01BF013C08BA
:1001D800C8073D0803110318013E0319F428C9078D
:1001E8003E0803110318013E0319FB28CA073F08FC
:1001F80003110318013E03190229CB073608BC0076
:100208003C08F20038080A128A15A2210A128A113B
:10021800730883120313CD007208CC004C08BC008D
:10022800BD01BE01BF013C08C3073D080311031807
:10023800013E03192029C4073E0803110318013E93
:1002480003192729C5073F0803110318013E03199D
:100258002E29C6074D08BC00BD01BE01BF013C08E0
:10026800C8073D0803110318013E03193C29C907B3
:100278003E0803110318013E03194329CA073F0822
:1002880003110318013E03194A29CB070830BC00A3
:100298000310C30DC40DC50DC60DBC0B4C29350884
:1002A800BC003C08F20038080A128A15A2210A127A
:1002B8008A11730883120313CD007208CC004C080E
:1002C800BC004D08BD00BE01BF013C08C3073D0886
:1002D80003110318013E03197229C4073E080311CC
:1002E8000318013E03197929C5073F0803110318AC
:1002F800013E03198029C6073408BC003C08F200F7
:1003080039080A128A15A2210A128A11730883125F
:100318000313CD007208CC004C08BC004D08BD008A
:10032800BE01BF013C08C3073D0803110318013E85
:1003380003199F29C4073E0803110318013E031936
:10034800A629C5073F0803110318013E0319AD2963
:10035800C6070830BC000310C30DC40DC50DC60D7B
:10036800BC0BAF293408BC003C08F20038080A125C
:100378008A15A2210A128A11730883120313CD0069
:100388007208CC004C08BC004D08BD00BE01BF017E
:100398003C08C3073D0803110318013E0319D5297A
:1003A800C4073E0803110318013E0319DC29C507D9
:1003B8003F0803110318013E0319E329C60735084E
:1003C800BC003C08F2003A080A128A15A2210A1257
:1003D8008A11730883120313CD007208CC004C08ED
:1003E800BC004D08BD00BE01BF013C08C8073D0860
:1003F80003110318013E0319022AC9073E08031115
:100408000318013E0319092ACA073F0803110318F4
:10041800013E0319102ACB073608BC003C08F2003D
:1004280039080A128A15A2210A128A11730883123E
:100438000313CD007208CC004C08BC004D08BD0069
:10044800BE01BF013C08C8073D0803110318013E5F
:1004580003192F2AC9073E0803110318013E03197F
:10046800362ACA073F0803110318013E03193D2A1B
:10047800CB073608BC003C08F2003A080A128A1575
:10048800A2210A128A11730883120313CD0072087D
:10049800CC004C08BC004D08BD00BE01BF010830AF
:1004A8000310BC0DBD0DBE0DBF0DFF3E031D542A2C
:1004B8003C08C8073D0803110318013E0319652AC3
:1004C800C9073E0803110318013E03196C2ACA071D
:1004D8003F0803110318013E0319732ACB07430889
:1004E800BC004408BD004508BE004608BF001830DF
:1004F8000310BF0CBE0CBD0CBC0CFF3E031D7C2AB8
:100508003C08C8073D0803110318013E03198D2A4A
:10051800C9073E0803110318013E0319942ACA07A4
:100528003F0803110318013E03199B2ACB07083023
:10053800BC000310C30DC40DC50DC60DBC0B9D2A10
:1005480047084207BC00BD01BD0D3C08823ECC00F7
:100558003D080318013EFF3ECD00CF2A0130BC0004
:100568000310C80DC90DCA0DCB0DBC0BB42AC61F8C
:10057800BE2ABF2AC02A48140130BC000310C30D8C
:10058800C40DC50DC60DBC0BC22AFF30CC0703181D
:10059800CD0AFF30CD07CA1FD22AD32AB22AC201F8
:1005A800C61FD72AD82AF42AFF304305BC00FF30DB
:1005B8004405BD00FF304505BE007F304605BF003D
:1005C8003F083E043D043C040319EB2AEC2AEF2AB9
:1005D800C201C20AF42A481CF22AF32AF42AEC2A95
:1005E80042080319F82AF92A2A2B0130C8070030D3
:1005F80003180130C907003003180130CA0700305A
:1006080003180130CB074B1C0A2B0B2B2A2B48084D
:10061800BC004908BD004A08BE004B08BF000130B5
:10062800C0003F0DBF0CBE0CBD0CBC0CC00B152B85
:100638003F08CB003E08CA003D08C9003C08C80076
:100648000130CC070318CD0A0030CD074D08803A99
:10065800FF0080307F02031D332BFF304C02031C48
:10066800362B372B422B7F3083120313CB0080307D
:10067800CA000030C9000030C800772B831203136A
:100688004D08803AFF0080307F02031D4D2B01305A
:100698004C020318502B512B5D2B0030831203138F
:1006A800CB000030CA000030C9000030C800C101CA
:1006B800772B831203134C08BC003C08C700FF309B
:1006C800C805FF30C9057F30CA050030CB05471C77
:1006D8006E2B6F2B702BCA174708BC0003103C0CFD
:1006E800BD003D08CB004108BC003C08CB044B08CA
:1006F800B7004A08B6004908B5004808B400080021
:100708000A128A1521210A128A110A128A159122BF
:100718000A128A110A128A15AD200A128A11F501E5
:10072800F50A01300A128A155A210A128A110B3069
:10073800F4008030F5000A128A154B220A128A1139
:10074800063083120313E8006808F50001300A1226
:100758008A155A210A128A111030F4008030F500E7
:100768000A128A154B220A128A110B3083120313BC
:10077800E8006808F50001300A128A155A210A12A1
:100788008A111530F4008030F5000A128A154B22C0
:100798000A128A110A128A15F1200A128A117B0399
:1007A800031DD72BD82BFB2B831203131E08E8003D
:1007B800E901EA01EB016B08F5006A08F400690831
:1007C800F3006808F20000300A128A15DF220A12C4
:1007D8008A11750883160313AF007408AE007308F6
:1007E800AD007208AC00FB01831203139F14433061
:1007F80083120313D1007F30D0000030CF000030C7
:10080800CE004030B700A030B6000030B500003050
:10081800B400831603132F0883120313BB00831637
:1008280003132E0883120313BA00831603132D082B
:1008380083120313B900831603132C0883120313BE
:10084800B8000A128A1123200A128A11831203138C
:100858003708D5003608D4003508D3003408D2004C
:100868000A128A159B230A128A118312031351084C
:1008780083160313AF008312031350088316031360
:10088800AE00831203134F0883160313AD008312BF
:1008980003134E0883160313AC002F08F5002E0827
:1008A800F4002D08F3002C08F2000A128A114C27D4
:1008B8000A128A11720883120313E8006808EE000E
:1008C8004230B700C830B6000030B5000030B40080
:1008D8006E08E800E901EA01EB016B08F5006A0817
:1008E800F4006908F3006808F20001300A128A155A
:1008F800DF220A128A11750883120313AF007408E5
:10090800AE007308AD007208AC00831603132F08FD
:1009180083120313B300831603132E0883120313E1
:10092800B200831603132D0883120313B100831634
:1009380003132C0883120313B0000A128A157E21B0
:100948000A128A11831203132F08BB002E08BA005B
:100958002D08B9002C08B8000A128A1123200A129F
:100968008A1183120313370883160313A70083120F
:100978000313360883160313A600831203133508DE
:1009880083160313A5008312031334088316031375
:10099800A4002708F5002608F4002508F300240819
:1009A800F2000A128A114C270A128A11720883125D
:1009B8000313E8006808FA00F501F50A02300A1284
:1009C8008A155A210A128A11831203136E080A1211
:1009D8008A153C210A128A111D300A128A15BA207A
:1009E8000A128A117A080A128A153C210A128A11F7
:1009F8000A307A02031C012D022D092D7A080A12E9
:100A08008A153C210A128A11182D1F30F4008030F3
:100A1800F5000A128A154B220A128A117A080A125C
:100A28008A153C210A128A110D3083120313E9003A
:100A3800FB30E800E80B1E2DE90B1E2D0A128A1563
:100A480009210A128A117B03031D2B2D2C2D4F2DF2
:100A5800831203131E08E800E901EA01EB016B08A1
:100A6800F5006A08F4006908F3006808F20000302D
:100A78000A128A15DF220A128A11750883160313CF
:100A8800AB007408AA007308A9007208A800FB014B
:100A9800831203139F14433083120313D1007F3052
:100AA800D0000030CF000030CE004030B700A0307A
:100AB800B6000030B5000030B400831603132B08CD
:100AC80083120313BB00831603132A08831203132C
:100AD800BA0083160313290883120313B900831677
:100AE8000313280883120313B8000A128A1123205B
:100AF8000A128A11831203133708D5003608D40066
:100B08003508D3003408D2000A128A159B230A122A
:100B18008A1183120313510883160313AB0083123F
:100B28000313500883160313AA00831203134F08F4
:100B380083160313A900831203134E0883160313A5
:100B4800A8002B08F5002A08F4002908F300280853
:100B5800F2000A128A114C270A128A1172088312AB
:100B68000313E8006808ED004230B700C830B6004B
:100B78000030B5000030B4006D08E800E901EA0172
:100B8800EB016B08F5006A08F4006908F3006808CF
:100B9800F20001300A128A15DF220A128A1175083A
:100BA80083120313AF007408AE007308AD00720817
:100BB800AC00831603132B0883120313B3008316A8
:100BC80003132A0883120313B20083160313290898
:100BD80083120313B1008316031328088312031327
:100BE800B0000A128A157E210A128A118312031391
:100BF8002F08BB002E08BA002D08B9002C08B80031
:100C08000A128A1123200A128A1183120313370841
:100C180083160313A30083120313360883160313E2
:100C2800A20083120313350883160313A10083124D
:100C38000313340883160313A0002308F5002208C1
:100C4800F4002108F3002008F2000A128A114C2748
:100C58000A128A11720883120313E8006808EC006C
:100C68000730E8006808F50002300A128A155A2190
:100C78000A128A11831203136D080A128A153C217D
:100C88000A128A111D300A128A15BA200A128A110C
:100C9800831203136C080A128A153C210A128A115E
:100CA8000D3083120313E900FB30E800E80B5A2EDD
:100CB800E90B5A2ECE2B0A128A110C288312031321
:100CC800B1002730A9002908AC00352F253032069D
:100CD80003196F2E702E7C2E3208A900310884006B
:100CE8002908831380000130A9002908B107352F8E
:100CF800AD010130A607FF30260784000A128A11C9
:100D0800D2270A128A11B200A900AA012A08003AB9
:100D180003198F2E352F2908003A0319472F643AF3
:100D280003199A2E0D3A03199A2E352F2C08840090
:100D380083130008AF00840A0008B0000230A9003D
:100D48002908AC07B01FA92EAA2EB32E0330A9007C
:100D58002908AD04AF09B009AF0A0319B00AB201F6
:100D6800B20A3208A9002907013E84000A128A1132
:100D7800D2270A128A11AA000A128A11D2270A1245
:100D88008A11AB002B083002031DCC2E2A082F0233
:100D98000318CF2ED02ED12EDB2E0130A900290822
:100DA800B20705303206031DDA2EDB2EB52E2D08CC
:100DB80003390319E02EE12EEC2E2D30A90031085D
:100DC80084002908831380000130A9002908B1078D
:100DD8003208A9002908AE002C2F0A30A0000030E4
:100DE800A1002E08A9002907013E84000A128A11D1
:100DF800D2270A128A11F2000A128A11D2270A127D
:100E08008A11F3003008F5002F08F4000A128A1539
:100E180007220A128A11730883120313A3007208A7
:100E2800A2000A128A15CB210A128A11831203130F
:100E38002008303EAA002A08B2003208A90031086A
:100E480084002908831380000130A9002908B1070C
:100E5800FF30A9002908AE072E0A031D342F352FAD
:100E6800F12E0130A607FF30260784000A128A11E6
:100E7800D2270A128A11A9002908B2003208031DD4
:100E8800462F472F6A2E31088400831380010800FB
:100E98000310740D750D83120313A0002008F700CA
:100EA8007708031D582F592F622F0030F5000030A6
:100EB800F4000030F3000030F200C72F7208A000E1
:100EC8007308A1007408A2007508A3001F3003105E
:100ED800A30CA20CA10CA00CFF3E031D6B2F200835
:100EE800A4002408F600F417FF30F205FF30F305DC
:100EF800FF30F4050030F5059630F702F71F852F0F
:100F0800862FA02F7708803A973E03188C2F8D2FB5
:100F18008E2F592F01300310F50CF40CF30CF20C42
:100F2800FF3E031D8F2F0130A0002008F707031D87
:100F38009E2F9F2F8E2FB72F20307702031CA52FAF
:100F4800A62FB22F592F0130A0000310F20DF30D78
:100F5800F40DF50DA00BA92F0130F7027708031D3A
:100F6800B62FB72FA72F76080319BB2FBC2FC72F73
:100F7800F209F309F409F509F20A0319F30A031946
:100F8800F40A0319F50A0800FF1BD22F83137F18F0
:100F980083170008840A0319FF0A080007308A002B
:100FA8000408840A82070034013400340A34003407
:100FB80064340034E83403341034273450344F3464
:100FC80054343134003450344F34543432340034CF
:100FD80043344F344E3454340034253464340034AC
:100FE8002E3400343034003464008001840A04064E
:080FF800031900340406F92F6F
:10115A0000300A128A15DD200A128A1501300A1295
:10116A008A15DD200A128A150800F3008312031378
:10117A0006177308880086170D30F200F20BC32891
:10118A0083120313861308008B130B1383120313A2
:10119A000C1FD028D128D428FB01FB0A0C138B176B
:1011AA000B1771088A00700E8300FE0E7E0E09006E
:1011BA00F400831203130613740888008617063096
:1011CA00F3003030F200F20BE828F30BE8280000B5
:1011DA0083120313861308008B170B17831203134A
:1011EA001F083F3940389F001F119F111F129F127D
:1011FA001F14831603139F131F129F120C178312B7
:10120A0003130C139F1408008B170B178312031375
:10121A001F083F3940389F001F159F111F129F1248
:10122A001F14831603139F131F129F120C17831286
:10123A0003130C139F140800831603130F088F3926
:10124A0060388F000F148601880187010514851400
:10125A00831603178901033088008312031385015B
:10126A008601870188018B018B170B1008008312F6
:10127A000313BA001A30B3003308A6003A08B400C0
:10128A00B5013408A7003508A80036300A128A11B9
:10129A0062260A128A153630F4000030F5000A1266
:1012AA008A154B220A128A150800F7007703031DD4
:1012BA005F2960296C2975087F3EF6007608F800D8
:1012CA0078080A128A15DD200A128A157D29023049
:1012DA007706031D712972297D297508BF3EF6001C
:1012EA007608F80078080A128A15DD200A128A158B
:1012FA000800803083120313AF063308F500320862
:10130A00F4003108F3003008F2002F08F9002E0823
:10131A00F8002D08F7002C08F6000A128A1578251D
:10132A000A128A15750883120313AF007408AE00F7
:10133A007308AD007208AC00080083120313A400FE
:10134A00A001A1017208F400F5017408A200750851
:10135A00A300241CB129B229B8292208A00703181E
:10136A00A10A2308A10701300310A20DA30DFF3E15
:10137A00031DB9290310A40C2408031DC529C62975
:10138A00AE292108F3002008F20008008312031393
:10139A00200821040319D229D329022AA501A50A62
:1013AA00E12901300310A00DA10DFF3E031DD7292D
:1013BA000130A4002408A507A11FE429E529D6299C
:1013CA0021082302031DEB2920082202031CEE290F
:1013DA00EF29F5292008A2022108031CA303A3026E
:1013EA0001300310A10CA00CFF3E031DF6290130A9
:1013FA00A502031D012A022AE5292308A1002208C1
:10140A00A0000800F701F8017208730403190E2AF4
:10141A000F2A462AF901F90A1D2A01300310F20D92
:10142A00F30DFF3E031D132A0130F6007608F90773
:10143A00F31F202A212A122A01300310F70DF80D72
:10144A00FF3E031D222A73087502031D2E2A720805
:10145A007402031C312A322A392A7208F4027308E8
:10146A00031CF503F502771401300310F30CF20C98
:10147A00FF3E031D3A2A0130F902031D452A462A76
:10148A00212A7808F3007708F20008008312031370
:10149A00A001A101742A20087407F7007508F60054
:1014AA000318F60AA01F5A2AF6037608F8007808E5
:1014BA0083120313FF00770884000A128A11C827CF
:1014CA000A128A150A128A15BA200A128A150130D6
:1014DA0083120313A0070318A10A0030A1072008EA
:1014EA007407F7007508F6000318F60AA01F7E2A8B
:1014FA00F6037608F800780883120313FF007708CA
:10150A0084000A128A11C8270A128A15003A031D92
:10151A008F2A902A502A08001430F6007930F500F4
:10152A00F50B952AF60B952A9A2A30300A128A1553
:10153A00DD200A128A150730F6007D30F500F50B1A
:10154A00A42AF60BA42A30300A128A15DD200A12C0
:10155A008A150F30F6004730F500F50BB22AF60B64
:10156A00B22AB72A30300A128A15DD200A128A15E1
:10157A00D030F600C930F500F50BC12AF60BC12AA6
:10158A00C62A38300A128A15DD200A128A15013055
:10159A000A128A15DD200A128A1506300A128A15DD
:1015AA00DD200A128A150C300A128A15DD200A1269
:1015BA008A15080083120313A00020080319E62ADB
:1015CA00E72AFB2AF51FEA2AEB2AFB2A7209A2005C
:1015DA007309A3007409A4007509A500A20A0319D6
:1015EA00A30A0319A40A0319A50A032B7508A5005F
:1015FA007408A4007308A3007208A2007508740492
:10160A0073047204031D0A2B0B2B142B0030F500F4
:10161A000030F4000030F3000030F2009A2B9630CC
:10162A00F6007608A100262B0130F6007608A107FD
:10163A0001300310A50CA40CA30CA20CFF3E031D41
:10164A001E2BFE302505031D2B2B2C2B192B482B6B
:10165A000130F6007608A1070130A207003003180E
:10166A000130A307003003180130A4070030031823
:10167A000130A50701300310A50CA40CA30CA20C81
:10168A00FF3E031D402BFF302505031D4D2B4E2B1E
:10169A002D2B5A2B0130A1020130F6000310A20DA6
:1016AA00A30DA40DA50DF60B532BA41B5D2B5E2BCE
:1016BA00642B023021020318632B642B4F2B211851
:1016CA00672B682B702BFF30A205FF30A3057F30F4
:1016DA00A405FF30A5050310A10C2108F600F701A7
:1016EA00F801F90118300310F60DF70DF80DF90D90
:1016FA00FF3E031D782B7608A2047708A304780816
:10170A00A4047908A504200803198C2B8D2B922B8D
:10171A00F51F902B912B922BA5172508F50024086D
:10172A00F4002308F3002208F200080083120313CE
:10173A0055088039D6005608DF005508D6005607E6
:10174A00D7005708E600D41FAB2BAC2BAD2B661481
:10175A0066080319B12BB22BC22B660A031DB62BDE
:10176A00B72BBF2B0030D5000030D4000030D30097
:10177A000030D200D417D501CA2B0030D500003072
:10178A00D4000030D3000030D20051088039D6008E
:10179A005608DF065108D6005607D7005708E70053
:1017AA00D01FD82BD92BDA2B671467080319DE2B25
:1017BA00DF2BEF2B670A031DE32BE42BEC2B003006
:1017CA00D1000030D0000030CF000030CE00D0175A
:1017DA00D101F72B0030D1000030D0000030CF000B
:1017EA000030CE00510850044F044E04031DFE2B56
:1017FA00FF2B182C0030D5000030D4000030D30065
:10180A000030D2008030D4047F30D5045F08D6007F
:10181A005608D5045508D1005408D0005308CF0003
:10182A005208CE00772D6608031D1C2C1D2C262C71
:10183A000030D1000030D0000030CF000030CE00A0
:10184A00772D6608D600D7015708D90067085602CF
:10185A00D800031CD90358087F3EE0005908031832
:10186A00013E003EE1005508DE005408DD00530841
:10187A00DC005208DB000030D5000030D400003014
:10188A00D3000030D2000030E5000030E400003020
:10189A00E3000030E200E7019C2C67080319562C8C
:1018AA00572C772C0130D6000310DB0DDC0DDD0D33
:1018BA00DE0DD60B592C0130D6000310D20DD30DF4
:1018CA00D40DD50DD60B622CE51F6C2C6D2C6E2C0D
:1018DA0052140130D6000310E20DE30DE40DE50DBC
:1018EA00D60B702C51085E02031D852C50085D0230
:1018FA00031D852C4F085C02031D852C4E085B02D4
:10190A00031C882C892C982C65174E08DB024F087B
:10191A00031C4F0FDC025008031C500FDD02510854
:10192A00031C510FDE020130D6005608E7071A30B1
:10193A006702031CA12CA22C522C5E085D045C04D5
:10194A005B040319A92CAA2CC92C6214C92C0130D6
:10195A00D6000310D20DD30DD40DD50DD60BAE2C57
:10196A00E51FB82CB92CBA2C52140130D60003103A
:10197A00E20DE30DE40DE50DD60BBC2CFF30E007BC
:10198A000318E10AFF30E107D41FCC2CCD2CAC2C74
:10199A00E701E51FD12CD22CEE2CFF306205D600D0
:1019AA00FF306305D700FF306405D8007F30650536
:1019BA00D90059085804570456040319E52CE62C93
:1019CA00E92CE701E70AEE2C521CEC2CED2CEE2C4C
:1019DA00E62C67080319F22CF32C242D0130D207C8
:1019EA00003003180130D307003003180130D40740
:1019FA00003003180130D507551C042D052D242D60
:101A0A005208D6005308D7005408D8005508D90000
:101A1A000130DA00590DD90CD80CD70CD60CDA0BD8
:101A2A000F2D5908D5005808D4005708D300560876
:101A3A00D2000130E0070318E10A0030E10761082B
:101A4A00803AFF0080307F02031D2D2DFF30600297
:101A5A00031C302D312D3F2DFF3083120313E0007C
:101A6A000030E1000030D5000030D4000030D3004F
:101A7A000030D200831203136108803AFF008030DD
:101A8A007F02031D4A2D0130600203184D2D4E2D91
:101A9A005B2D83120313E001E1010030D500003011
:101AAA00D4000030D3000030D200DF0183120313C8
:101ABA006008D6005608E600661C642D652D672D61
:101ACA00D4176B2D7F30D6005608D4056608D60089
:101ADA000310560CD7005708D5005F08D6005608E1
:101AEA00D5040F2C08007508803983120313A0004F
:101AFA002008A8007508A0002007A1002108AA0054
:101B0A00F41F882D892D8A2D2A142A0803198E2D4F
:101B1A008F2D9F2D2A0A031D932D942D9C2D003065
:101B2A00F5000030F4000030F3000030F200F41742
:101B3A00F501A72D0030F5000030F4000030F30065
:101B4A000030F20079088039A0002008A90029088D
:101B5A0028060319B12DB22DB32D28177908A00034
:101B6A002007A1002108A900F81FBC2DBD2DBE2DFC
:101B7A00291429080319C22DC32DD32D290A031D9F
:101B8A00C72DC82DD02D0030F9000030F8000030E4
:101B9A00F7000030F600F817F901DB2D0030F900E4
:101BAA000030F8000030F7000030F6002A08290259
:101BBA000318E02DE12D252E281FE42DE52DE92D12
:101BCA008030A0002008A8062A08A0002008AB0040
:101BDA002908A0002008AA002B08A0002008A900B4
:101BEA007208A0002008AB007608A0002008F200C6
:101BFA002B08A0002008F6007308A0002008AB00FC
:101C0A007708A0002008F3002B08A0002008F7009E
:101C1A007408A0002008AB007808A0002008F4008F
:101C2A002B08A0002008F8007508A0002008AB00C7
:101C3A007908A0002008F5002B08A0002008F90068
:101C4A00AB012908A000A1012108A3002A0820024B
:101C5A00A200031CA3032308803AFF0080307F02FE
:101C6A00031D392E1A302202031C3C2E3D2E7A2ED9
:101C7A007508740473047204031D442E462E013041
:101C8A00472E003083120313A0002008AB00003057
:101C9A00F5000030F4000030F3000030F2002908AB
:101CAA00A0002008AA00822E2B1C5C2E5D2E662E18
:101CBA002B08A0000310200C0138A1002108AB005A
:101CCA00682E0310AB0C721C6B2E6C2E6D2EAB178C
:101CDA000130A000750DF50CF40CF30CF20CA00BFE
:101CEA006F2E0130A0002008AA07831203132908C7
:101CFA002A02031C812E822E592E281B852E862EFF
:101D0A00D12E2A08031D8A2E8B2E942E0030F50020
:101D1A000030F4000030F3000030F200FF2F7608A4
:101D2A00F207770803110318013E03199D2EF307E2
:101D3A00780803110318013E0319A42EF407790841
:101D4A0003110318013E0319AB2EF507751CAE2EBD
:101D5A00AF2E852F2B1CB22EB32EBC2E2B08A00023
:101D6A000310200C0138A1002108AB00BE2E03107D
:101D7A00AB0C721CC12EC22EC32EAB170130A000B1
:101D8A00750DF50CF40CF30CF20CA00BC52E0130FA
:101D9A00A0002008AA07852F7508803AFF00790855
:101DAA00803A7F02031DE32E78087402031DE32E96
:101DBA0077087302031DE32E760872020318E62ED3
:101DCA00E72E3F2FFF30A000FF30A100FF30A20016
:101DDA00FF30A3007608A4007708A5007808A600BB
:101DEA007908A7007208A4027308031C730FFE2E59
:101DFA00FF2EA5027408031C740F042F052FA602D8
:101E0A007508031C750F0A2F0B2FA7022408A007B9
:101E1A0025080318250F122F132FA10726080318C8
:101E2A00260F182F192FA20727080318270AA30716
:101E3A002308F5002208F4002108F3002008F20024
:101E4A008030A0002008A806AB09AB0A2B08031DA6
:101E5A002F2F302F4D2F0130F20700300318013099
:101E6A00F307003003180130F4070030031801307B
:101E7A00F5074D2F7608F2027708031C770FF30255
:101E8A007808031C780FF4027908031C790FF5020D
:101E9A007508740473047204031D542F552F812F7F
:101EAA002B08031D592F5A2F812F0030F5000030BF
:101EBA00F4000030F3000030F200FF2F0130A000E0
:101ECA000310F20DF30DF40DF50DA00B652FAB1FEA
:101EDA006F2F702F712F72142B1C742F752F782F60
:101EEA000314AB0D7A2F0310AB0D2A0803197E2FAA
:101EFA007F2F812F0130AA02F41F842F852F632F91
:101F0A00A901AB1F892F8A2F982F2B087F39031914
:101F1A008F2F902F932FA901A90A982F721C962F01
:101F2A00972F982F902F290803199C2F9D2FD12F77
:101F3A000130F207003003180130F30700300318AC
:101F4A000130F407003003180130F507751CAE2F75
:101F5A00AF2FD12F7208A0007308A1007408A20045
:101F6A007508A3000130A400230DA30CA20CA10C38
:101F7A00A00CA40BB92F2308F5002208F4002108AD
:101F8A00F3002008F2002A0A0319CC2FCD2FD12FF3
:101F9A000130A0002008AA072A0A0319D52FD62F34
:101FAA00DB2F2A08031DDA2FDB2FE92F0030F5007B
:101FBA000030F4000030F3000030F2002A08031D5C
:101FCA00E72FE82FE92FA8012A1CEC2FED2FEF2F7E
:101FDA00F417F32F7F30A0002008F4052A08A00088
:101FEA000310200CA1002108F500A81FFD2FFE2FC9
:061FFA00FF2FF51708009F
:04400E00D4E0FFFFFC
:00000001FF
