:020000040000FA
:060000000A128A110C280F
:10000800FE00030EF1000A08F2000A128A11922873
:100018000A128A110F28FA01FB0183010A128A11B8
:1000280063281430F7007930F600F60B1928F70B1F
:1000380019281E2830300A128A11C7200A128A117C
:100048000730F7007D30F600F60B2828F70B282834
:1000580030300A128A11C7200A128A110F30F700AD
:100068004730F600F60B3628F70B36283B28303099
:100078000A128A11C7200A128A11D030F700C93033
:10008800F600F60B4528F70B45284A2838300A129F
:100098008A11C7200A128A1101300A128A11C72050
:1000A8000A128A1106300A128A11C7200A128A1106
:1000B8000E300A128A11C7200A128A1108000A1281
:1000C8008A11B0200A128A110A128A11FF200A1214
:1000D8008A110A128A1115200A128A110A128A1123
:1000E800ED200A128A110D30F900FB30F800F80BE8
:1000F8007B28F90B7B2880280A128A11DB200A1238
:100108008A110D30F900FB30F800F80B8928F90B3B
:1001180089288E2872280A128A110C288312031340
:100128000C1F97289828A9281F199B289C28A028C5
:100138001E08F0007008FB001F1DA328A428A8288B
:100148001E08F0007008FA000C1372088A00710E7D
:100158008300FE0E7E0E09008316031386018801B4
:100168008701831203130514851483160317890165
:100178008801831203138601870188018B018B177D
:100188008B150B100800F50083120313061375086E
:10019800880086170630F4003030F300F30BD228BD
:1001A800F40BD2280000831203138613080083126D
:1001B80003131F083F3940389F001F159F111F1256
:1001C8009F129F101F14831603139F131F129F1251
:1001D8000800831203131F083F3940389F001F117E
:1001E8009F111F129F129F101F14831603139F1332
:1001F8001F129F120800831603130C178312031390
:040208000C170800C7
:04400E00D4E0FFFFFC
:00000001FF
