:020000040000FA
:060000000A128A110C280F
:10000800FE00030EF1000A08F2000A128A111528F0
:100018000A128A110F28F401F50183010A128A11C4
:10002800CD280B1C18281928392883120313061CFD
:100038001E281F2823280130F0007008850710307B
:100048000502031C282829282A288501861C2D2812
:100058002E2831280130850238280508031D352847
:10006800362838280F3085000B10831203138C1D97
:100078003E283F2893281412141B43284428482854
:10008800941F472848284F281308F0007008F500E7
:1000980014139413141683160313941A542855280A
:1000A8007028141958285928702883120313130824
:1000B800F0007008F5008C11141683160313141C35
:1000C80066286728612883120313130888005330B1
:1000D800F000F00B6D289028941A73287428902843
:1000E800141D772878289028831203131308F0002A
:1000F8007008F500831603131410831203130608FF
:10010800930014165330F000F00B8828831603135D
:1001180014188F2890288A28831203138C117208C8
:100128008A00710E8300FE0E7E0E0900F30073082C
:100138008316031393003630831203139400803020
:1001480083160313940001309100871507168B1747
:100158000B17831203138C11831603138C150800D5
:10016800831603178801890101308316031396004B
:1001780096148501061486148801831203138501D9
:100188008601880150300A128A119A200A128A11AF
:1001980008000A128A11B4200A128A11D2280A12F7
:0401A8008A110C2884
:04400E00D4E0FFFFFC
:00000001FF
